:020000040800F2
:10000000E81A002499030008A93400085F340008A6
:10001000A53400083B0B0008254D00080000000037
:10002000000000000000000000000000893B000804
:100030007D0B00080000000021380008853C000806
:10004000B3030008B3030008B30300083538000801
:10005000B3030008B3030008B3030008810B0008D2
:100060009D0B0008A90B0008B30300085D0B0008F6
:100070006D0B0008B3030008B3030008B3030008C6
:10008000B3030008B3030008B3030008B303000878
:10009000B3030008B3030008B3030008B50B00085E
:1000A000B3030008B3030008B3030008B303000858
:1000B000213D0008313D0008413D0008B303000820
:1000C000B3030008B3030008B3030008B303000838
:1000D000613A0008914B0008E14B0008DD4C000834
:1000E000B30300082538000800000000B30300082F
:1000F000B3030008B3030008B3030008B303000808
:10010000B3030008B3030008853D0008B3030008EB
:10011000B3030008B3030008B3030008B3030008E7
:10012000B3030008B3030008B3030008B3030008D7
:10013000B3030008B3030008B3030008B3030008C7
:1001400000000000000000000000000000000000AF
:10015000B3030008B3030008B3030008B3030008A7
:10016000B3030008B3030008B3030008B303000897
:10017000B3030008B3030008B30300080000000045
:10018000B3030008B3030008B3030008B303000877
:10019000B3030008B3030008B3030008B303000867
:1001A000B3030008B3030008B3030008B303000857
:1001B000B3030008B3030008B3030008B303000847
:1001C000B3030008B3030008B3030008B303000837
:1001D000B3030008B3030008B3030008B303000827
:1001E000B3030008B3030008B3030008B303000817
:1001F000B3030008B3030008B3030008B303000807
:10020000B3030008B3030008B3030008B3030008F6
:10021000B3030008B3030008B3030008B3030008E6
:10022000B3030008B3030008B30300080000000094
:10023000B3030008B303000800000000B303000884
:10024000B3030008B3030008B3030008B3030008B6
:10025000B3030008B3030008B3030008B3030008A6
:10026000B3030008B3030008B3030008B303000896
:10027000B3030008B3030008B30300080000000044
:10028000B303000800000000B303000800000000F2
:1002900000000000B303000800F002F800F06DF861
:1002A0000AA090E8000C82448344AAF10107DA45D1
:1002B00001D100F062F8AFF2090EBAE80F0013F0B6
:1002C000010F18BFFB1A43F001031847A871000083
:1002D000C87100000A444FF0000C10F8013B13F005
:1002E000070408BF10F8014B1D1108BF10F8015B8F
:1002F000641E05D010F8016B641E01F8016BF9D182
:1003000013F0080F1EBF10F8014BAD1C0C1B09D1D8
:100310006D1E58BF01F801CBFAD505E014F8016B4A
:1003200001F8016B6D1EF9D59142D6D370470000DC
:100330000023002400250026103A28BF78C1FBD8EE
:10034000520728BF30C148BF0B607047642900F0D6
:100350001781752900F01481782900F04D816329F7
:1003600000F0F682732900F0FB82002070471FB571
:1003700006F0C2FD1FBD10B510BD00F013FB114605
:10038000FFF7F5FF05F0A2FA00F031FB03B4FFF729
:10039000F2FF03BC05F0EFF9094880470948004720
:1003A000FEE7FEE7FEE7FEE7FEE7FEE7FEE7FEE725
:1003B000FEE7FEE704480549054A064B7047000082
:1003C0008D3C000899020008E8140024E81A002473
:1003D000E8160024E816002453EA020C00F06980B5
:1003E0002DE9F04B4FF00006002B1FBFB3FA83F549
:1003F00003FA05F424FA05F65E4012BF1643B2FA7A
:1004000082F502FA05F4C5F120051EBF22FA05FCAB
:1004100044EA0C04203556EA044C4FEA144418BF51
:10042000641C4FF000084FF00009904271EB030C80
:1004300039D3002919BFB1FA81F701FA07F6B0FAEA
:1004400080F700FA07F6C7F120071EBF20FA07FC65
:1004500046EA0C062037B6FBF4FCA7EB0507103F75
:1004600007F01F0BCBF120060CFA0BFB2CFA06F65B
:1004700044BFB3460026202FA4BF5E464FF0000BBA
:100480005BEA060C08BF4FF0010B19EB0B09ABFB45
:10049000027C48EB0608C01B06FB02CC0BFB03CC1E
:1004A00071EB0C01C1E70B46024641464846BDE8E8
:1004B000F08B13B54FF000004FF00001AFF3008058
:1004C000BDE81C40704700000FB4044910B503AAF2
:1004D000029800F049FA10BC5DF814FB0C000024EF
:1004E00070B5044685690068C10601D5302600E074
:1004F0002026C00707D070BDD4E9012130469047BF
:10050000206A401C20626D1EF6D570BD70B5044691
:1005100085690078C00707D170BDD4E9012120208A
:100520009047206A401C20626D1EF6D570BD70B5E4
:100530000C460546012A05D02878800600D5EA69D0
:10054000002302E0012305E05B1C934202D2E05C41
:100550000028F9D1A869E618C01AA861286A1844C9
:1005600028622846FFF7BCFF04E0D5E9012114F812
:10057000010B9047B442F8D32846FFF7C7FF70BD80
:100580002DE9F0410646002410687529314616A56C
:1005900010D0AFF30080002802DA404213A507E034
:1005A00031688A0701D512A502E0490704D511A5D3
:1005B000012401E0AFF3008000210A2206F12407A4
:1005C00009E0B0FBF2FCB0FBF2F302FB1C003030A0
:1005D00078541846491C0028F3D123462A46304651
:1005E000BDE8F04100F038B9000000002D00000027
:1005F0002B0000002000000070B504460D46214687
:100600001068AFF300802188090502D50F4A7A44AB
:1006100002E00E4A7A440E32002104F1240305E080
:1006200000F00F060009965D5E54491C0028F7D1C2
:1006300020780023000704D5702D02D009B10223D1
:1006400011322046BDE8704000F006B9026D00008E
:100650002DE9F05F894604464FF0000ADFF874B1D7
:10066000FB44C0F820A02046E1688847002874D0E9
:10067000252806D0D4E901219047206A401C206239
:10068000F1E700265F462046E168884720280546B6
:1006900007DB312D05D2781910F8200C08B106437C
:1006A000F1E7B00701D526F00406C4F81CA0002726
:1006B000C4F818A02A2D09D0284605F055F838B3FB
:1006C00004EB8708303DC8F8185019E059F8041BAE
:1006D000204604EB87029161E1688847012F0546B7
:1006E00018D1E069002820DA26F020061DE0D8F8AD
:1006F000180000EB800005EB40003038C8F8180007
:100700002046E1688847054605F02EF80028EED11E
:10071000012F0AD02E2D08D12046E16888477F1C82
:100720000546022F46F02006C4DBA069002803DA44
:10073000404246F00106A061F00701D026F0100605
:100740006C2D0BD0682D09D04C2D39D06A2D35D0A9
:10075000742D35D07A2D33D016E038E0E1682F467D
:1007600020468847B842054609D16C2F26D04FF461
:100770008060E168064320468847054604E06C2F08
:100780001AD04FF4807006430DB3A5F1410019282B
:1007900002D8203546F400664A462946204626609F
:1007A0004E46FFF7D3FD80B101280BD0F61D26F091
:1007B000070000F1080956E74020E4E78020D8E769
:1007C0000020D6E706F104094DE7284652E7206AE3
:1007D000BDE8F09FD86C000010B5203AC0F00B8047
:1007E000B1E81850203AA0E81850B1E81850A0E835
:1007F0001850BFF4F5AF5FEA027C24BFB1E818508F
:10080000A0E8185044BF18C918C0BDE810405FEAFE
:10081000827C24BF51F8043B40F8043B08BF70477A
:10082000D20728BF31F8023B48BF11F8012B28BF7F
:1008300020F8023B48BF00F8012B70477047704713
:10084000704710B500F0A2F8006810BD10B504465E
:1008500000F09CF8046010BD2DE9F0470D46994664
:100860009246044600F124080168880604D5E06930
:1008700021F01001216000E00120A84201DD471BAA
:1008800000E00027A1697A1902EB0900081AA061AB
:100890002078C00602D42046FFF722FE002608E09A
:1008A000D4E901211AF806009047206A401C761C02
:1008B00020624E45F4DB2078C0060AD52046FFF7BB
:1008C0000FFE06E0D4E9012130209047206A401C49
:1008D0002062381EA7F10107F4DC07E0D4E901210A
:1008E00018F805009047206A401C2062281EA5F1D8
:1008F0000105F3DC2046FFF709FE2078000602D54B
:100900000220BDE8F0870120FBE7000001694A1CD6
:1009100002610878704700B58FB0CDE90131002140
:10092000059105497944CDE9031011466846FFF762
:100930008FFE0FB000BD0000E5FFFFFF10B543695B
:1009400013B1AFF3008001E0FFF7F1FD012010BD0E
:10095000127800F124010A7000224A700122EDE7AA
:1009600011684FF0FF32E9E7074B70B50D467B4445
:10097000FFF7D1FF0446284600F00CF810B14FF005
:10098000FF3070BD204670BDB34E00000048704778
:10099000B00F0024007B00F08000704700487047D3
:1009A000B00F00247546FFF7F9FFAE460500694613
:1009B000534620F00700854618B020B5FFF7FAFC33
:1009C000BDE820404FF000064FF000074FF0000850
:1009D0004FF0000B21F00701AC46ACE8C009ACE8D1
:1009E000C009ACE8C009ACE8C0098D46704710B535
:1009F0000446AFF300802046BDE81040FFF7C6BCB8
:100A000010B500F023F8BDE8104000F019B8000060
:100A10001FB584B000200A9C06AB04AA02A900946A
:100A2000AFF3008018B1DDE9020108B010BD034842
:100A30002040FFF7E5FF00200146F6E70000207C9C
:100A4000002801D004F097BE7047000010B50228BE
:100A500003D0410103D50DA112E0002010BD01011A
:100A600001D50FA10CE0C10001D511A108E0810062
:100A700001D512A104E0400001D513A100E000213E
:100A800015A000F039F8012010BD0000496E766114
:100A90006C6964204F7065726174696F6E0000004C
:100AA000446976696465204279205A65726F000056
:100AB0004F766572666C6F7700000000556E646556
:100AC00072666C6F77000000496E65786163742010
:100AD000526573756C7400005349474650453A207F
:100AE00041726974686D65746963206578636570C7
:100AF00074696F6E3A20000070B505460C460A20F6
:100B000000E06D1C00F011F835B128780028F8D10C
:100B100002E0641C00F009F814B120780028F8D134
:100B2000BDE870400A20AFF3008008B569468DF833
:100B300000000320ABBE08BD704700BFFEE7000009
:100B400010B502F0CDFE02F07DFE0348006840F0D3
:100B500004000149086010BD9CEF00E010B5024898
:100B600000F04EF910BD0000C409002410B5024881
:100B700000F046F910BD00003C0A00247047000058
:100B800004480069401C03490861022002490860CA
:100B900070470000580100248800005808200149CF
:100BA00008607047880000580820014908607047B5
:100BB000880000584FF40070014908607047000039
:100BC0008800005830B50246002300240868012838
:100BD00016D013686FF30E03D1E901052843CD68E1
:100BE00028430D6928434D6928438D692843CD6901
:100BF00028430D6A28434D6A28430343136019E0D4
:100C0000136823F4F843D1E9070528434D6A2843C4
:100C1000034354686FF30E04D1E901052843CD68FE
:100C200028430D6928434D6928438D6928430443AF
:100C300013605460002030BD0246506940EA410014
:100C400050610020704718B5034600200090D1E99C
:100C5000000420438C68641E40EA4410CC6840EADB
:100C60004420009000981861002018BD70B503461C
:100C7000154600220024012D1FD09A6802F0704210
:100C80000868401E4E68761E40EA06168868401EB8
:100C900046EA0026C868401E46EA0036088A401E1A
:100CA00046EA0046888A401E46EA0056087E401EF4
:100CB00046EA006002439A6022E09A6811480240C6
:100CC000C868401E0603888A401E46EA0050024358
:100CD000DC6804F070440868401E4E68761E40EAE6
:100CE00006168868401E46EA0026088A401E46EA24
:100CF0000046087E401E46EA006004439A60DC60BD
:100D0000002070BDFF0F0FFF10B504460CB9012085
:100D100010BD94F83500022803D0802060650120C2
:100D2000F6E734492068884205D333492068884271
:100D300001D8012000E00020C0B1042084F8350073
:100D40002C49206888420AD32B492068884206D85B
:100D50002068006820F001002168086048E02068F1
:100D6000006820F001002168086041E02068006808
:100D700020F00E00216808601E49206888420AD3CE
:100D80001D492068884206D82068006820F00100CC
:100D90002168086005E02068006820F001002168F3
:100DA0000860206E006820F48070216E086094F85E
:100DB0005C100120884011490860D4E9191048608E
:100DC000E06E40B1E06E006820F48070E16E086073
:100DD000D4E91C10486000BF002084F8340000BF34
:100DE000012084F83500206D10B12046216D884720
:100DF00000208DE710000240B8040240045402585D
:100E00002DE9F84304460027002500200090FE4805
:100E100000684FF41651B0FBF1F8A66D3768FB4936
:100E20002068884205D3FA492068884201D8012009
:100E300000E0002000287BD094F85C100820884057
:100E4000384000B3F1492068884208D3F04920684F
:100E5000884204D82068006800F0040003E020689D
:100E6000006800F0080070B12068006820F00400FD
:100E70002168086094F85C1008208840B060606DBC
:100E800040F00100606594F85C10E248884038400A
:100E9000C8B1DE492068884208D3DD49206888420D
:100EA00004D82068406900F0800002E020680068F3
:100EB000002040B194F85C10D6488840B060606D66
:100EC00040F00200606594F85C10D248C01C884075
:100ED0003840D0B1CD492068884208D3CC49206839
:100EE000884204D82068006800F0020002E0206810
:100EF0000068002048B194F85C10C648C01C8840C7
:100F0000B060606D40F00400606594F85C101020E3
:100F10008840384030B3BD492068884209D3BC4975
:100F20002068884205D82068006800F0080004E0C6
:100F3000EFE02068006800F0040098B194F85C10BD
:100F400010208840B0602068006800F4802080B1E4
:100F50002068006800F4002028B9206C10B12046F9
:100F6000216C884715E0A06C98B12046A16C884799
:100F70000FE02068006800F4807028B920680068DD
:100F800020F0080021680860206C10B12046216C18
:100F9000884794F85C10202088403840002873D09F
:100FA0009A492068884208D399492068884204D821
:100FB0002068006800F0100003E02068006800F07E
:100FC0000200002860D094F85C1020208840B060B7
:100FD00094F83500042829D12068006820F0160014
:100FE000216808602068406920F08000216848611D
:100FF000206C08B9A06C28B12068006820F00800B7
:101000002168086094F85C103F208840B06000BF01
:10101000002084F8340000BF012084F83500206DE2
:1010200010B12046216D8847BDE8F883206800682C
:1010300000F4802080B12068006800F4002028B906
:10104000606C10B12046616C88471DE0E06BD8B140
:101050002046E16B884717E02068006800F4807044
:1010600068B92068006820F010002168086000BF9F
:10107000002084F8340000BF012084F83500E06BC4
:1010800010B12046E16B8847606D002840D0606D4C
:1010900000F0010090B3042084F835005B4920681B
:1010A00088420AD35A492068884206D820680068D6
:1010B00020F001002168086005E02068006820F049
:1010C00001002168086000BF0098401C0090404566
:1010D00000D905E02068006800F001000028F3D185
:1010E00000BF00BF002084F8340000BF2068006803
:1010F00000F0010018B1032084F8350002E001205F
:1011000084F83500E06C002802D02046E16C884766
:1011100097E041492068884206D33F498C312068D6
:10112000884201D8012000E00020002853D0256823
:1011300039480838006894F85C2004219140084040
:10114000E0B1286800F00400C0B1286800F0200079
:1011500018B9286820F0040028602F48001F006894
:1011600094F85C200421914008432B49091F086032
:10117000206C80B32046216C884762E026480838FE
:10118000006894F85C2002219140084020B3286850
:1011900000F0020000B3286800F0200058B9286869
:1011A00020F00A00286000BF002084F8340000BF4F
:1011B000012084F835001848001F006894F85C206E
:1011C0000221914008431449091F0860E06B10B1E7
:1011D0002046E16B884734E00F480838006894F8EF
:1011E0005C2008219140084058B3286800F00800AE
:1011F00038B3286820F00E0028600748001F0068F8
:1012000094F85C20012109E0000000241000024055
:10121000B80402400100800008540258914008437D
:10122000094908600120606500BF002084F834008F
:1012300000BF012084F83500E06C10B12046E16C5D
:10124000884700BFF0E600000454025803480068D5
:1012500040F0010001490860704700002004005878
:10126000F8B502460B460021002600240020824DDE
:1012700000BFFCE0012707FA01F61F6807EA060431
:10128000B4427CD15F68022F02D05F68122F1AD15E
:101290004FEAD10C02F1200757F82C004F074FEA14
:1012A000D76C0F2707FA0CF7B8434FEA417C4FEA97
:1012B000DC6C1F6907FA0CF738434FEAD10C02F1D6
:1012C000200747F82C0010684FEA410C032707FA63
:1012D0000CF7B8431F7907F003074FEA410C07FAF0
:1012E0000CF7384310605F68012F08D05F68022F49
:1012F00005D05F68112F02D05F68122F17D1906858
:101300004FEA410C032707FA0CF7B8434FEA410CA8
:10131000DF6807FA0CF738439060506801278F4068
:10132000B8431F79C7F300178F4038435060D06827
:101330004FEA410C032707FA0CF7B8434FEA410C78
:101340009F6807FA0CF73843D0605F6807F0805752
:10135000B7F1805F95D100BF484F3F6847F0020763
:10136000DFF818C1CCF8007067463F6807F0020745
:10137000009700BF00BF424F4FEA910C00E075E0BC
:1013800057F82C008F074FEA177C0F2707FA0CF746
:10139000B8433C4FBA4201D100272DE03A4FBA4240
:1013A00001D1012728E0394FBA4201D1022723E0B9
:1013B000374FBA4201D103271EE0364FBA4201D15E
:1013C000042719E0344FBA4201D1052714E0334F06
:1013D000BA4201D106270FE0314FBA4201D10727A7
:1013E0000AE0304FBA4201D1082705E02E4FBA4239
:1013F00001D1092700E00A274FEA817C4FEA1C7CD3
:1014000007FA0CF738431E4F4FEA910C47F82C00AF
:101410002868A0435F6807F48037B7F5803F00D1A4
:10142000204328606868A0435F6807F40037B7F579
:10143000003F00D1204368604FF0B0473868A043B8
:101440005F6807F48017B7F5801F00D120434FF085
:10145000B04738607868A0435F6807F40017B7F5B5
:10146000001F00D120434FF0B0477860491C10297D
:10147000FFF400AFF8BD000080000058F4440258AB
:1014800008040058000002580004025800080258DE
:10149000000C02580010025800140258001802589C
:1014A000001C02580020025800240258014800681D
:1014B00070470000140000240348006803490978BD
:1014C0000844014908607047140000241C000024EF
:1014D00010B5032000F07EF80F2000F007F808B1E7
:1014E000012010BD00F028F80020FAE770B504468E
:1014F0000E4800784FF47A71B1FBF0F00C4909689E
:10150000B1FBF0F5284601F060FB08B1012070BD89
:10151000102C07D200222146501E00F01EF805486C
:10152000046001E00120F2E70020F0E71C00002445
:1015300000000024180000247047014608460028D7
:1015400009DB00F01F0301229A4043099B0003F1CD
:10155000E023C3F8002100BF70472DE9F05F80460B
:101560000D46164603F0F8FB074639462A46334631
:1015700001F00700C0F1070ABAF1040F02D94FF0D9
:10158000040A01E0C0F1070AD14600F1040ABAF1E9
:10159000070F02D24FF0000A01E0A0F1030AD4467F
:1015A0004FF0010A0AFA09FAAAF1010A0AEA020A44
:1015B0000AFA0CFA4FF0010B0BFA0CFBABF1010B22
:1015C0000BEA030B4AEA0B042146404603F0CCFB2E
:1015D000BDE8F09F00BF00F00702064B19684FF608
:1015E000FF031940044B0B4343EA0221014B1960EE
:1015F00000BF70470CED00E00000FA0510B500F0E8
:10160000CBFB0949096801F470614FF4807292FACA
:10161000A2F2B2FA82F2D140044A515CC8400449B5
:1016200008600846006810BD18440258207200087F
:101630000000002410B500F067FB0749096801F0BD
:101640007001102292FAA2F2B2FA82F2D140034A59
:10165000515CC84010BD00002044025820720008B0
:1016600070B5014600220120002300249FED811A5D
:10167000B0EE410A9FED7F1AF0EE410A7E4D2D68D3
:1016800005F003027C4D2D68C5F305307A4D2D1D04
:101690002D6805F01003784D14352D68C5F3CC0581
:1016A00015FB03F501EE105AB8EE411AB0EE410AEF
:1016B00022B1012A4DD0022A7DD169E06E4D283D2C
:1016C0002D68C5F340152DB36B4D283D2D68C5F32E
:1016D000C1066A4D25FA06F4B4FBF0F501EE105A86
:1016E000F8EE411A9FED661A80EE012A624D103520
:1016F0002D68C5F3080501EE105AB8EE411A32EE16
:10170000011AB7EE002A31EE021A21EE811AF0EE2C
:10171000410A1DE0594DB5FBF0F501EE105AF8EE07
:10172000411A9FED571A80EE012A534D10352D684E
:10173000C5F3080501EE105AB8EE411A32EE011A4F
:10174000B7EE002A31EE021A21EE811AF0EE410ABC
:101750005EE04C4DB5FBF0F501EE105AB8EE412AB3
:101760009FED471AC0EE011A434D10352D68C5F3A1
:10177000080501EE105AB8EE411A31EE811AF7EE63
:10178000001A31EE211A22EE011AF0EE410A3FE072
:101790003D4DB5FBF0F501EE105AF8EE411A9FED04
:1017A000381A80EE012A344D10352D68C5F308052E
:1017B00001EE105A00E00CE0B8EE411A32EE011AC8
:1017C000B7EE002A31EE021A21EE811AF0EE410A3C
:1017D0001EE02C4DB5FBF0F501EE105AB8EE412A93
:1017E0009FED271AC0EE011A234D10352D68C5F361
:1017F000080501EE105AB8EE411A31EE811AF7EEE3
:10180000001A31EE211A22EE011AF0EE410A00BF51
:1018100000BF194D10352D68C5F346256D1C01EE2E
:10182000105AB8EE411AC0EE811ABCEEE11A81EDF1
:10183000001A114D10352D68C5F306456D1C01EEDB
:10184000105AB8EE411AC0EE811ABCEEE11A81EDD1
:10185000011A094D10352D68C5F306656D1C01EEA2
:10186000105AB8EE411AC0EE811ABCEEE11A81EDB1
:10187000021A70BD00000000284402580090D003F6
:101880000000004600093D0040787D0170B501462A
:1018900000220120002300249FED811AB0EE410AAE
:1018A0009FED7F1AF0EE410A7E4D2D6805F0030290
:1018B0007C4D2D68C5F305507A4D2D1D2D6805F41E
:1018C0008073784D1C352D68C5F3CC0515FB03F5E9
:1018D00001EE105AB8EE411AB0EE410A22B1012AC7
:1018E0004DD0022A7DD169E06E4D283D2D68C5F3AB
:1018F00040152DB36B4D283D2D68C5F3C1066A4DCB
:1019000025FA06F4B4FBF0F501EE105AF8EE411A90
:101910009FED661A80EE012A624D18352D68C5F3D9
:10192000080501EE105AB8EE411A32EE011AB7EE70
:10193000002A31EE021A21EE811AF0EE410A1DE072
:10194000594DB5FBF0F501EE105AF8EE411A9FED36
:10195000571A80EE012A534D18352D68C5F3080536
:1019600001EE105AB8EE411A32EE011AB7EE002A13
:1019700031EE021A21EE811AF0EE410A5EE04C4D82
:10198000B5FBF0F501EE105AB8EE412A9FED471A6B
:10199000C0EE011A434D18352D68C5F3080501EE58
:1019A000105AB8EE411A31EE811AF7EE001A31EEF4
:1019B000211A22EE011AF0EE410A3FE03D4DB5FB3F
:1019C000F0F501EE105AF8EE411A9FED381A80EE4C
:1019D000012A344D18352D68C5F3080501EE105A5B
:1019E00000E00CE0B8EE411A32EE011AB7EE002A20
:1019F00031EE021A21EE811AF0EE410A1EE02C4D62
:101A0000B5FBF0F501EE105AB8EE412A9FED271A0A
:101A1000C0EE011A234D18352D68C5F3080501EEF7
:101A2000105AB8EE411A31EE811AF7EE001A31EE73
:101A3000211A22EE011AF0EE410A00BF00BF194D33
:101A400018352D68C5F346256D1C01EE105AB8EE09
:101A5000411AC0EE811ABCEEE11A81ED001A114D57
:101A600018352D68C5F306456D1C01EE105AB8EE09
:101A7000411AC0EE811ABCEEE11A81ED011A094D3E
:101A800018352D68C5F306656D1C01EE105AB8EEC9
:101A9000411AC0EE811ABCEEE11A81ED021A70BD46
:101AA00000000000284402580090D00300000046C7
:101AB00000093D0040787D0170B504460D460026C2
:101AC0008D48006800F00700A8420ED28A480068DE
:101AD00020F007002843884908600846006800F0A5
:101AE0000700A84201D0012070BD207800F002005C
:101AF000022807D18148006820F00F00E168084300
:101B00007E490860207800F00100002851D07B4811
:101B1000006820F47060A168084378490860606834
:101B2000022807D1754818380068C0F34040F8B95A
:101B30000120D9E76068032807D170481838006889
:101B4000C0F34060A0B90120CEE76068012807D14A
:101B50006A4818380068C0F3002048B90120C3E77C
:101B6000664818380068C0F3800008B90120BBE758
:101B700062480838006820F00700616808435F4940
:101B800008390860FFF792FC06466068022811D108
:101B900008E0FFF78BFC801B41F28831884201D9B5
:101BA0000320A1E755480838006800F038001028E5
:101BB000EFD13AE06068032811D108E0FFF776FC26
:101BC000801B41F28831884201D903208CE74B48C1
:101BD0000838006800F038001828EFD125E0606868
:101BE000012811D108E0FFF761FC801B41F2883128
:101BF000884201D9032077E740480838006800F0A0
:101C000038000828EFD110E008E0FFF74FFC801BF8
:101C100041F28831884201D9032065E73748083806
:101C2000006800F038000028EFD13348006800F069
:101C30000700A8420ED93048006820F0070028436A
:101C40002D4908600846006800F00700A84201D04E
:101C5000012049E7207800F00400042807D1274834
:101C6000006820F07000216908432449086020784A
:101C700000F00800082809D12048001D006820F065
:101C80007000616908431D49091D0860207800F053
:101C90001000102809D11948001D006820F4E060E8
:101CA000A16908431549091D0860207800F020004B
:101CB000202809D111480830006820F07000E1693F
:101CC00008430E490831086000F066F80B490968BE
:101CD00001F470614FF4807292FAA2F2B2FA82F2C9
:101CE000D140074A515CC840064908600F20FFF701
:101CF000FDFB0020F8E600000020005218440258C6
:101D0000207200080000002410B5FFF777FC094995
:101D1000096801F00F01012292FAA2F2B2FA82F2EE
:101D2000D140054A515CC840044908600846006833
:101D300010BD00001844025820720008040000245E
:101D400010B5FFF7E1FF0749096801F070011022A3
:101D500092FAA2F2B2FA82F2D140034A515CC84030
:101D600010BD00001C4402582072000810B5FFF797
:101D7000CBFF0749096801F4E0614FF4807292FAE1
:101D8000A2F2B2FA82F2D140024A515CC84010BDC0
:101D90001C4402582072000870B5012500EE905ACC
:101DA0000022012100230024DFED861AB0EE610A33
:101DB000DFED841AB0EE611A0020834D2D6805F026
:101DC000380535B1082D15D0102D15D0182D7CD122
:101DD00014E07D4D103D2D68C5F3401545B17A4D99
:101DE000103D2D68C5F3C106784D25FA06F000E0D8
:101DF0007648E5E07648E3E07648E1E0724D183554
:101E00002D6805F00302704D18352D68C5F30511D6
:101E10006D4D1C352D6805F001036B4D24352D6883
:101E2000C5F3CC0515FB03F501EE905AF8EE611AE7
:101E3000B0EE610A22B1012A4FD0022A7DD16BE0B7
:101E4000614D103D2D68C5F340152DB35E4D103D1D
:101E50002D68C5F3C1065D4D25FA06F4B4FBF1F516
:101E600001EE905AB8EE612ADFED5B1AC0EE212A2E
:101E7000554D20352D68C5F3080501EE905AF8EE52
:101E8000611A72EEA11AF7EE002A71EEA21A62EE42
:101E9000211AB0EE611A1FE04C4DB5FBF1F501EED1
:101EA000905AB8EE612ADFED4C1AC0EE212A464D59
:101EB00020352D68C5F3080501EE905AF8EE611A39
:101EC00072EEA11AF7EE002A00E077E071EEA21A96
:101ED00062EE211AB0EE611A5EE03D4DB5FBF1F500
:101EE00001EE905AB8EE612ADFED3B1AC0EE212ACE
:101EF000354D20352D68C5F3080501EE905AF8EEF2
:101F0000611A72EEA11AF7EE002A71EEA21A62EEC1
:101F1000211AB0EE611A3FE02E4DB5FBF1F501EE4E
:101F2000905AB8EE612ADFED2C1AC0EE212A264D18
:101F300020352D68C5F3080500E00EE001EE905A4B
:101F4000F8EE611A72EEA11AF7EE002A71EEA21AEB
:101F500062EE211AB0EE611A1EE01D4DB5FBF1F5DF
:101F600001EE905AF8EE612ADFED1B1A80EE212A6D
:101F7000154D20352D68C5F3080501EE905AF8EE91
:101F8000611A72EE211AB7EE002A71EE821A62EE21
:101F9000A11AB0EE611A00BF00BF0B4D20352D68AD
:101FA000C5F346256D1C00EE905AF8EE601A81EEDE
:101FB000212AFCEEC21A11EE900A01E0044800BF8B
:101FC00000BF70BD00000000104402580090D00314
:101FD00000093D0040787D010000004670B50446D0
:101FE0000025207800F00100002872D0F948006830
:101FF00000F0380010280CD0F648006800F03800D7
:10200000182812D1F3481830006800F003000228A5
:102010000BD1F04810380068C0F3404000286DD064
:10202000606800286AD1012070BD00BF6068B0F50B
:10203000803F08D1E7481038006840F48030E54917
:10204000103908602EE0606868B9E248103800680E
:1020500020F48030DF49103908600846006820F419
:10206000802008601EE06068B0F5A02F0DD1D9482F
:102070001038006840F48020D649103908600846BE
:10208000006840F4803008600CE0D24810380068E6
:1020900020F48030CF49103908600846006820F4E9
:1020A0008020086000BF6068A0B1FFF7FFF9054617
:1020B00008E0FFF7FBF9401B41F28831884201D963
:1020C0000320B1E7C34810380068C0F3404000283F
:1020D000EFD013E0FFF7EAF9054608E0FFF7E6F96D
:1020E000401B41F28831884201D903209CE7B9485E
:1020F00010380068C0F340400028EFD1207800F08D
:102100000200022847D1B348006800F0380058B1F7
:10211000B048006800F0380018283ED1AD481830AB
:10212000006800F00300B8BBAA4810380068C0F38C
:10213000800018B1E06808B9012075E7A54810389B
:10214000006820F01900E1680843A24910390860CE
:10215000FFF7ACF9054606E0FFF7A8F9401B022897
:1021600001D9032060E79B4810380068C0F3800065
:102170000028F1D097480C38006820F47C304FF4E8
:102180007C3292FAA2F2B2FA82F2216991400843BB
:1021900090490C3908604AE0FFE7E06868B38D4871
:1021A0001038006820F01900E168084389491039A7
:1021B0000860FFF77BF9054606E0FFF777F9401B5B
:1021C000022801D903202FE7824810380068C0F3A5
:1021D00080000028F1D07F480C38006820F47C3063
:1021E0004FF47C3292FAA2F2B2FA82F22169914063
:1021F000084378490C39086019E0764810380068BF
:1022000020F00100734910390860FFF74FF90546C7
:1022100006E0FFF74BF9401B022801D9032003E732
:102220006C4810380068C0F380000028F1D1207895
:1022300000F01000102877D16648006800F03800E0
:1022400008280CD06348006800F03800182823D113
:1022500060481830006800F0030001281CD15D4878
:1022600010380068C0F3002020B1E069802801D058
:102270000120D9E657480C38006820F0F8404FF0AC
:10228000F84292FAA2F2B2FA82F2216A914008432D
:1022900050490C39086047E0E06958B34D481038A0
:1022A000006840F080004B4910390860FFF7FEF8E5
:1022B000054606E0FFF7FAF8401B022801D9032083
:1022C000B2E6444810380068C0F300200028F1D07E
:1022D00040480C38006820F0F8404FF0F84292FA7D
:1022E000A2F2B2FA82F2216A9140084339490C39CC
:1022F000086019E037481038006820F08000354940
:1023000010390860FFF7D2F8054606E0FFF7CEF86F
:10231000401B022801D9032086E62E4810380068A9
:10232000C0F300200028F1D1207800F00800082830
:1023300036D16069D0B127486430006840F00100B0
:10234000244964310860FFF7B1F8054606E0FFF75D
:10235000ADF8401B022801D9032065E61D48643012
:102360000068C0F340000028F1D019E0194864303B
:10237000006820F00100174964310860FFF796F803
:10238000054606E0FFF792F8401B022801D903201A
:102390004AE6104864300068C0F340000028F1D1DC
:1023A000207800F02000202834D1A069D8B1094855
:1023B0001038006840F48050064910390860FFF773
:1023C00075F8054608E0FFF771F8401B022803D9AD
:1023D000032029E610440258AF480068C0F340309B
:1023E0000028F0D016E0AC48006820F48050AA49DC
:1023F0000860FFF75BF8054606E0FFF757F8401B5B
:10240000022801D903200FE6A3480068C0F340303A
:102410000028F2D1207800F0040004287DD19F48E4
:10242000006840F480709D490860FFF73FF805465A
:1024300006E0FFF73BF8401B642801D90320F3E5D1
:102440009648006800F480700028F2D000BFA068B1
:10245000012808D190487030006840F001008E4992
:10246000703108602DE0A06868B98B487030006852
:1024700020F001008849703108600846006820F0AB
:10248000040008601DE0A06805280DD18248703066
:10249000006840F004008049703108600846006818
:1024A00040F0010008600CE07B487030006820F0CC
:1024B00001007949703108600846006820F0040086
:1024C000086000BFA068A0B1FEF7F0FF054608E075
:1024D000FEF7ECFF401B41F28831884201D903200E
:1024E000A2E56D4870300068C0F340000028EFD0CE
:1024F00013E0FEF7DBFF054608E0FEF7D7FF401BC1
:1025000041F28831884201D903208DE5624870305C
:102510000068C0F340000028EFD1606A00287CD03A
:102520005D481030006800F03800182876D0606AE6
:10253000022874D15848006820F08070564908601D
:10254000FEF7B4FF054606E0FEF7B0FF401B022889
:1025500001D9032068E550480068C0F340600028B6
:10256000F2D100BFD4E90A1041EA00104A492831EB
:10257000096840F2F3329143084347492831086023
:10258000208E401EC0F30800616B491E4FF47E424E
:1025900002EA41210843218F491ED20102EA01418A
:1025A00008433C21095D491E120202EA0161084309
:1025B00039493031086000BF081D00684FF6F871D6
:1025C00088434FF6F87292FAA2F2B2FA82F2A16C44
:1025D000914008433049343108602F482C3000685E
:1025E00020F00C00216C08432B492C310860084670
:1025F000006820F00200616C084327492C31086014
:102600000846006840F4803008600846006840F4DE
:10261000003008600846006802E03BE038E01FE058
:1026200040F4802008600846006840F0010008601F
:102630001948006840F0807017490860FEF736FFBF
:10264000054606E0FEF732FF401B022801D90320B1
:10265000EAE411480068C0F340600028F2D019E0B5
:102660000D48006820F080700B490860FEF71EFFDF
:10267000054606E0FEF71AFF401B022801D9032099
:10268000D2E405480068C0F340600028F2D101E0C0
:102690000120C9E40020C7E4004402580048025861
:1026A0007047704710B504464FF400200A4908608F
:1026B0002068C068C0F3802050B12068C06800F076
:1026C000800060F490602168C8602046FFF7E9FF51
:1026D000012084F8210010BD8800005810B5044680
:1026E00001A0FDF7F1FE10BD414C41524D204121AA
:1026F0000D0A000010B504464FF400301749086079
:1027000020688068C0F3003078B12068C068C0F3EA
:10271000002050B12068C06800F0800060F4C070F4
:102720002168C8602046FFF7D9FF20688068C0F3A1
:10273000403078B12068C068C0F3402050B12068B4
:10274000C06800F0800060F420702168C8602046F6
:10275000FFF7A6FF012084F8210010BD8800005873
:1027600070B504460D460CB9012070BD94F82C00DC
:1027700028B9002084F82D00204600F019F8022026
:1027800084F82C00211D2068FEF71CFA2946D4E9A4
:102790000002FEF76BFA0548006840F0004003496C
:1027A0000860012084F82C000020DEE70040005281
:1027B00010B586B0044600BF4648006840F00200ED
:1027C000444908600846006800F00200009000BF1D
:1027D00000BF00BF3F482038006840F480503D49AA
:1027E000203908600846006800F48050009000BF5F
:1027F00000BF00BF37481438006840F00400354976
:10280000143908600846006800F00400009000BF1A
:1028100000BF00BF0846006840F008000860084696
:10282000006800F00800009000BF00BF00BF08462D
:10283000006840F0100008600846006800F01000D2
:10284000009000BF00BF00BF0846006840F02000B5
:1028500008600846006800F02000009000BF00BF3C
:1028600000BF0846006840F0400008600846006865
:1028700000F04000009000BF00BF0D20019002203A
:10288000029001200390032004900C20059001A9E0
:102890001148FEF7E5FC4CF20370019001A90F48C6
:1028A000FEF7DEFC4FF68370019001A90C48FEF79D
:1028B000D7FC4FF63F00019001A90A48FEF7D0FC73
:1028C00048F23710019001A90748FEF7C9FC06B08D
:1028D00010BD0000F444025800080258000C0258D1
:1028E00000100258001402580018025870B504462F
:1028F0000D4694F82C00022800D170BD022084F807
:102900002C0029462068FEF797F9012084F82C0056
:102910000020F2E770B504460D46164694F82C00E8
:10292000022800D170BD022084F82C0032462946CE
:102930002068FEF788F92868022803D1052084F86A
:102940002C0002E0012084F82C000020EAE7704708
:102950002DE9F0470446206807692068D0F8148004
:1029600007EA08052068D0F808904FF0000A94F8AC
:10297000816005F0400038B905F0010020B1204623
:10298000216F88474FF0010A05F0200038B905F0A3
:10299000020020B12046616F88474FF0010ABAF16A
:1029A000000F01D0BDE8F08705F00800002872D0C4
:1029B0002068806940F0080021688861206880698B
:1029C00040F01000216888612068806940F4006050
:1029D000216888612068006920F00800216808618A
:1029E00009F4404048B1042E02D0A06FC06920B164
:1029F000032E3DD0E06FC069C8BB2068806800F43A
:102A0000404038BB22E0E0680F2807D92068006BFF
:102A1000616E0860606E001D606612E0E068072865
:102A200007D92068008E616E0880606E801C606629
:102A300007E0206890F83000616E0870606E401CFE
:102A40006066B4F86A00401EA4F86A00B4F86A0030
:102A50000028D8D1204601F00BF8012084F881002D
:102A6000D4F8840018B12046FFF771FF9AE7FFE71A
:102A7000052E03D1204600F093F80AE0042E03D17E
:102A8000204600F08BF804E0032E02D1204600F02F
:102A900086F887E7FFE707F0080048B108F4006010
:102AA00030B12068806940F400602168886179E76E
:102AB00005F4587000286CD005F0400058B1D4F8E7
:102AC000840040F00400C4F884002068806940F06D
:102AD00040002168886105F4007058B1D4F8840082
:102AE00040F00100C4F884002068806940F4007060
:102AF0002168886105F4807058B1D4F8840040F0F2
:102B00000800C4F884002068806940F4807021685F
:102B1000886105F0200058B1D4F8840040F08000AE
:102B2000C4F884002068806940F020002168886132
:102B3000D4F8840028B32068006820F001002168E0
:102B400008602068006940F26B31884321680861A1
:102B500009F44040B0B12068806820F4404021680A
:102B60008860E06F28B10C48E16F0865E06FFEF700
:102B7000CBF8A06F28B10848A16F0865A06FFEF7D9
:102B8000C3F805E0012084F881002046FFF7DFFE4E
:102B900008E700BF06E700006D3B0008704770477C
:102BA0007047042808D14FF0E021096941F0040181
:102BB0004FF0E022116107E04FF0E021096921F0B8
:102BC00004014FF0E0221161704770B504462546BC
:102BD000681EB0F1807F01D301200FE0681E4FF026
:102BE000E02148610F214FF0FF3002F0BDF80020D6
:102BF0004FF0E021886107200861002070BD704718
:102C0000704710B504460CB9012010BD94F83D0082
:102C100028B9002084F83C00204600F00DF802207E
:102C200084F83D00211D206801F0B4F8012084F8EB
:102C30003D000020E9E7000038B504462849206837
:102C4000884216D100BF2748006840F0020025499D
:102C500008600846006800F00200009000BF00BF56
:102C6000032201211D20FEF778FC1D20FEF765FCE4
:102C700034E02068B0F1804F16D100BF19480068D9
:102C800040F00100174908600846006800F00100A4
:102C9000009000BF00BF032201211C20FEF75DFC55
:102CA0001C20FEF74AFC19E00F492068884215D124
:102CB00000BF0C48006840F008000A490860084658
:102CC000006800F00800009000BF00BF032201214F
:102CD0003220FEF742FC3220FEF72FFC38BD000008
:102CE00000040040E8440258000C00400146086817
:102CF000C06840F001000A68D0600868008840F0B1
:102D000001000A68108000207047704710B5044623
:102D100020680069C0F34000D8B12068C068C0F3E3
:102D20004000B0B16FF002002168086101202077F7
:102D30002068806900F0030018B12046FFF7E5FF26
:102D400005E0204600F0BEF8204600F0BCF8002068
:102D5000207720680069C0F38000D8B12068C0687F
:102D6000C0F38000B0B16FF0040021680861022058
:102D700020772068806900F4407018B12046FFF782
:102D8000C4FF05E0204600F09DF8204600F09BF8C7
:102D90000020207720680069C0F3C000D8B1206807
:102DA000C068C0F3C000B0B16FF0080021680861CE
:102DB000042020772068C06900F0030018B1204685
:102DC000FFF7A3FF05E0204600F07CF8204600F066
:102DD0007AF80020207720680069C0F30010D8B18D
:102DE0002068C068C0F30010B0B16FF01000216817
:102DF0000861082020772068C06900F4407018B18D
:102E00002046FFF782FF05E0204600F05BF82046F1
:102E100000F059F8002020772068006900F00100D8
:102E200058B12068C06800F0010030B16FF00100B7
:102E300021680861204600F047F820680069C0F367
:102E4000C01058B12068C068C0F3C01030B16FF036
:102E50008000216808612046FFF7D1FE20680069E4
:102E6000C0F3002058B12068C068C0F3C01030B172
:102E70006FF08000216808612046FFF7C0FE2068DF
:102E80000069C0F3801058B12068C068C0F380109A
:102E900030B16FF0400021680861204600F02CF846
:102EA00020680069C0F3401058B12068C068C0F3C2
:102EB000401030B16FF02000216808612046FFF714
:102EC0009FFE10BD704770470849884203D1012119
:102ED000074A117009E00749884205D10449496849
:102EE000491C034A516000E000BF7047E80300241A
:102EF0005801002428040024704770477047014699
:102F00000022002391F8792091F87A3042EA0300F8
:102F1000704700002DE9F04104462068C56920682B
:102F200007682068866805F00F08B8F1000F0DD11A
:102F300005F0200050B107F0200010B906F08050D5
:102F400020B1204601F095F8BDE8F081B8F1000FFE
:102F500072D05D48304018B907F4907000287AD0DC
:102F600005F0010048B107F4807030B101202168FC
:102F70000862E06F40F00100E06705F0020048B130
:102F800006F0010030B1022021680862E06F40F0D5
:102F90000400E06705F0040048B106F0010030B11C
:102FA000042021680862E06F40F00200E06705F04D
:102FB000080078B107F0200028B906F0805010B959
:102FC00006F0010030B1082021680862E06F40F08F
:102FD0000800E067E06F70B305F0200040B107F033
:102FE000200010B906F0805010B1204601F041F8E1
:102FF000E06F00F0080020B92068806800F0400011
:1030000018B3204601F015F82068806800F04000F1
:10301000B8B12068806820F0400021688860606F47
:1030200058B12A48616F0865606FFDF76DFE10B1F9
:10303000606F016D88470DE00DE02046FFF75EFFF1
:1030400008E02046FFF75AFF04E02046FFF756FF4E
:103050000020E06778E705F4801078B106F480007E
:1030600060B14FF4801021680862202084F8790054
:1030700084F87A002046FFF740FF65E705F08000FE
:1030800048B107F0800010B906F4000018B12046DE
:1030900001F006FD58E705F0400030B107F04000B0
:1030A00018B1204600F0D5FF4EE705F4000040B10E
:1030B00007F0804028B12068006820F08040216837
:1030C000086000BF40E70000010000101B4000083E
:1030D00010B504460CB9012010BDA06900B100E094
:1030E00000BF94F8790028B9002084F878002046C1
:1030F00000F02AF8242084F879002068006820F085
:10310000010021680860204600F0F8FF012800D186
:10311000E2E7606B10B1204600F0D0FE2068406806
:1031200020F49040216848602068806820F02A00E0
:10313000216888602068006840F00100216808600C
:10314000204600F030FFC7E710B586B0044621499D
:10315000206888423BD100BF1F48006840F0010052
:103160001D4908600846006800F00100009000BF9B
:1031700000BF00BF18481030006840F0100016492A
:10318000103108600846006800F01000009000BF91
:1031900000BF4FF4007001900220029001200390C4
:1031A000022004900720059001A90C48FEF758F86A
:1031B0004FF48060019001A90848FEF751F82520DE
:1031C000FEF7BBF9032211462520FEF7C6F906B02B
:1031D00010BD000000100140E044025800000258F9
:1031E0002DE9F84F04460D46164699464FF0000A61
:1031F00094F87A0020287AD105B116B90120BDE8EB
:10320000F88F00BF94F87800012801D10220F6E77A
:10321000012084F8780000BF00206834606122201B
:10322000A074FEF743F9824626806680683C00BFA2
:10323000A068B0F5805F0AD1206920B940F2FF1084
:10324000A4F86C001CE0FF20A4F86C0018E0A06853
:1032500048B9206918B9FF20A4F86C0010E07F205D
:10326000A4F86C000CE0A068B0F1805F08D1206980
:1032700018B97F20A4F86C0002E03F20A4F86C008D
:1032800000BFB4F86C8024E0B4F86A00401EA4F8D3
:103290006A005346002220212046CDF8009001F01C
:1032A00040FC08B10320AAE7A068B0F5805F09D10F
:1032B000206938B92F462068808C00EA08003880E1
:1032C000AD1C06E02068808C08F0FF01084005F87E
:1032D000010BB4F86A000028D6D1202084F87A00C7
:1032E00000BF002084F8780000BF88E7FFE70220D5
:1032F00085E710B5034693F87A00202867D101B11D
:103300000AB9012010BD00BF93F87800012801D14F
:103310000220F7E7012083F8780000BF5966A3F880
:103320006820A3F86A2000BF9868B0F5805F0AD1D2
:10333000186920B940F2FF10A3F86C001CE0FF20D0
:10334000A3F86C0018E0986848B9186918B9FF200C
:10335000A3F86C0010E07F20A3F86C000CE09868E4
:10336000B0F1805F08D1186918B97F20A3F86C000C
:1033700002E03F20A3F86C0000BF0020D8672220A5
:1033800083F87A0000BF002083F8780000BF186837
:10339000806840F001001C68A0601868006800F0B8
:1033A000005060B11868006840F480701C682060AC
:1033B0001868806840F080501C68A06005E01868BC
:1033C000006840F490701C68206000209AE702209A
:1033D00098E700001D4A0168914236D11C490988CE
:1033E00001F4004189BB1A49098801F4804171B197
:1033F000184909780A2903D00021154A118024E0D0
:103400001349098841F40041114A11801DE0114916
:1034100009780D2906D10E49098841F480410C4AEA
:10342000118012E00B490978094A1288C2F30D0293
:10343000094B995406490988491C054A11801146CF
:103440000988C72901DD0021118070470010014063
:10345000100000241200002460020024704700BF06
:10346000FEE7000010B50D484078B12809D10B489F
:103470008078112805D10121002002F0FFF90346D0
:10348000984700200549C1F80C0281F80802044859
:103490000068401C0249086010BD00002C07002491
:1034A0002000002400BFFEE770470000B12008495B
:1034B0004870582088700020C87008714871012039
:1034C00088710020C87108720920C1F80C02704789
:1034D0001C0500242DE9F0418AB0B1203E49487016
:1034E000522088700020C8700871487101208871CE
:1034F0000720C1F80C02002469E0684600EB840054
:1035000090ED000AB5EEC00AF1EE10FA09D0684657
:1035100000EB840090ED000ABCEEC00A10EE106AC9
:1035200018E02D212C48D0F80C22D0F80C02401CB9
:10353000294BC3F80C0218468154684600EB8400FE
:1035400090ED000AB7EEC00AB0EEC00BBCEEC00BA7
:1035500010EE106A304602F010F90546002726E00A
:10356000681EC01B00EE100AB8EE400BB0EE401B08
:10357000B2EE040B01F00CFCBCEEC00B10EE108A96
:10358000B6FBF8F030301449D1F80C12124A5054FE
:103590001046D0F80C021146085C303800FB186663
:1035A0007F1C0846D0F80C02401CC1F80C02AF4248
:1035B000D6D33B200849D1F80C12074A5054104684
:1035C000D0F80C02401C1146C1F80C02641C032CFC
:1035D00093D30AB0BDE8F0811C05002402E002A0EC
:1035E000FCF772FFFBE700006572726F720000006B
:1035F000704700002DE9F0412DED028B3B4890ED26
:103600000B0AB8EE400AB0EE408AB1203849487043
:10361000102088700020C8700871487125208871BA
:103620000720C1F80C02B5EEC08AF1EE10FA04D002
:10363000BCEEC80A10EE104A13E02D212C48D0F839
:103640000C22D0F80C02401C294BC3F80C0218467F
:103650008154B7EEC80AB0EEC00BBCEEC00B10EE42
:10366000104A204602F089F80546002638E0681E18
:10367000801B00EE100AB8EE400BB0EE401BB2EE1D
:10368000040B01F085FBBCEEC00B10EE107A00EECF
:10369000107AF8EE400A88EE200ADFED160A30EEC6
:1036A000200ABCEEC00A10EE100A1149D1F80C1223
:1036B0000F4A50541046D0F80C021146085C3038BE
:1036C000784300EE100AB8EE400A38EE400AB0EE39
:1036D000408A0846D0F80C02401CC1F80C02761C47
:1036E000AE42C4D3BDEC028BBDE8F081580100248A
:1036F0001C0500240000404200B52DED0A8B8FB060
:103700009FED410AB0EE409AB2EE0C0AF0EE409AFC
:103710009FED3D0AF0EE408A9FED3C0AF0EE40AA94
:103720003C223B496846FDF757F89FED3A0AB0EE58
:10373000408A9FED390AB0EE40BA39EEC90AB0EEC0
:1037400040CA3AEEE80AF0EE40BA8BEE2B0AF0EEF1
:1037500040CA8CEE080AB0EE40AAEE202F4948700D
:10376000B1204870352088700020C87008714871F9
:10377000022088710020C871BCEEC80A10EE100A41
:10378000000A0872BCEEC80A10EE100A48720A203D
:10379000C1F80C0226E02148D0F80C020A3800EEED
:1037A000100AB8EE400A20EE0A0ABCEEC00A10EE7B
:1037B000100A694601EB800090ED000A30EE680ABD
:1037C00020EE2C0ABCEEC00A10EE100A1349D1F804
:1037D0000C12124A50541046D0F80C02401C1146EC
:1037E000C1F80C020D4890ED830AB8EE400AF2EEE3
:1037F000040A78EE200AB4EEE00AF1EE10FACAD319
:103800000FB0BDEC0A8B00BD00000000000070424C
:10381000907200080000484200007F431C0500240D
:103820007047000010B50248FEF764FF10BD0000AD
:10383000B40A002410B50248FEF734FF10BD0000A2
:10384000B40A002410B50023234C236000BF00BF3E
:1038500000BFBFF34F8F00BF00BF00BF231F18681A
:10386000C0F34E3100BFC0F3C90200BF43F6E0739E
:1038700003EA41134FF0404404EA82742343174C97
:10388000236000BF00BF131EA2F10102EED10B1E88
:10389000A1F10101E7D100BF00BF00BFBFF34F8F0F
:1038A00000BF00BF00BF0C4B703B1B6843F480336C
:1038B000094C703C236000BF00BF00BFBFF34F8FB7
:1038C00000BF00BF00BF00BF00BF00BFBFF36F8FCE
:1038D00000BF00BF00BF10BD84ED00E060EF00E05E
:1038E00000BF00BF00BFBFF34F8F00BF00BF00BFCE
:1038F00000BF00BF00BFBFF36F8F00BF00BF00BF9E
:1039000000201449086000BF00BF00BFBFF34F8F05
:1039100000BF00BF00BF00BF00BF00BFBFF36F8F7D
:1039200000BF00BF00BF0C48006840F400300A49E7
:10393000086000BF00BF00BFBFF34F8F00BF00BFD4
:1039400000BF00BF00BF00BFBFF36F8F00BF00BF4D
:1039500000BF704750EF00E014ED00E000B587B005
:10396000164817490860002048600121144881600A
:103970000821C160202101614021416189008161EC
:103980000021C1614FF400610162490041620021E0
:10399000816202200090082001900620029003908E
:1039A000022004900590069069460548FEF7D8FE6F
:1039B000034800F007F807B000BD00004041005286
:1039C0006804002470B50546002400230122114636
:1039D000184600F021F84FF4FA7001F0F3FE0023CE
:1039E00001220221184600F017F8002308220321C3
:1039F000184600F011F84FF4087423460122042100
:103A0000002000F009F840F2A5210248FEF76EFF01
:103A100070BD0000680400242DE9FF4104460D46F6
:103A200016461F464FF0000814B94FF0100803E087
:103A3000012C01D14FF008080095CDF804800296C2
:103A400003974FF6FF7269460448FEF763FF18B903
:103A5000002004B0BDE8F0810120FAE768040024EA
:103A600010B50248FEF774FF10BD00003C090024A9
:103A7000026851690268926942F0080203689A611B
:103A80000268926942F0100203689A610268126843
:103A900022F0010203681A600268126940F26B3377
:103AA0009A4303681A610268926822F440420368EC
:103AB0009A6090F88120042A0ED001F020025AB1B9
:103AC000D0F8842042F08002C0F884200268926915
:103AD00042F0200203689A6190F88120032A21D0E5
:103AE00001F040025AB1D0F8842042F00402C0F83C
:103AF00084200268926942F0400203689A61826AF7
:103B0000B2F5800F0ED101F080025AB1D0F88420B6
:103B100042F00202C0F884200268926942F08002FA
:103B200003689A6101F400725AB1D0F8842042F01F
:103B30000102C0F884200268926942F400720368AE
:103B40009A6101F480725AB1D0F8842042F00802E0
:103B5000C0F884200268926942F4807203689A6116
:103B60000022A0F86220A0F86A20704770B50546D0
:103B7000AC6B00206234208120800120E077623C21
:103B80002046FEF7E4FE70BD704700002DE9F041CD
:103B90009CB080460C4615461E46002737480068F4
:103BA00020F004003549086000BF00200090334831
:103BB0000C30006840F4404030490C310860084641
:103BC000006800F44040009000BF00BF00BF2B48D9
:103BD0000C30006800F40050B0F5005FF7D1012010
:103BE00001900004029000200490089002200A90A6
:103BF00002210B91CDF834800C940E950F96002184
:103C000012910821119101A8FEF7E8F907460FB1BA
:103C100000BFFEE73F20149003201590002016906F
:103C2000082017904020199000011A904020189009
:103C300050201B90022114A8FDF73EFF07460FB14C
:103C400000BFFEE70E48006840F080000C490860A5
:103C500000BF0B48F430006840F002000849F4311E
:103C600008600846006800F00200009000BF00BF36
:103C7000FDF7ECFA1CB0BDE8F08100000C480258DA
:103C80000044025810B5FDF717FC10BD204800682D
:103C900040F470001E4908601E48006840F00100B2
:103CA0001C49086000201B49103108601948006851
:103CB0001949084017490860002016491831086062
:103CC000091D0860091D0860124928310860091D96
:103CD0000860091D0860091D0860091D0860091DAC
:103CE0000860091D0860091D08600A48006820F482
:103CF00080200849086000200649603108600120E2
:103D000006490860C0060249803908607047000013
:103D100088ED00E0004402587FEDF6EA088100518A
:103D200010B50248FEF7F2FF10BD00002804002481
:103D300010B50248FEF7EAFF10BD0000E8030024BA
:103D400010B50E480068C06800F0010078B10C4959
:103D500008698047002009490968486200BF64205B
:103D600006490968C86264210448C16000BF6FF059
:103D7000010002490968086110BD0000700F0024AD
:103D80006400002410B50248FEF7C0FF10BD00001B
:103D9000A803002410B500220288294B98420ED0B7
:103DA000B0F1804F0BD0274B984208D0264B984259
:103DB00005D0264B984202D0254B984203D122F0E1
:103DC00070024B681A431E4B984217D0B0F1804FD7
:103DD00014D01C4B984211D01B4B98420ED01B4B59
:103DE00098420BD01A4B984208D01A4B984205D0F3
:103DF000194B984202D0194B984203D122F44072D9
:103E0000CB681A4322F080034C6943EA0402028023
:103E10008B68C3620B880385094B98420BD00C4B0F
:103E2000984208D00B4B984205D00B4B984202D0D9
:103E30000A4B984201D10B8A03860123436110BDCE
:103E4000000001400004004000080040000C004059
:103E5000000401400040014000440140004801408E
:103E600038B504460D4600BF1148006840F0040014
:103E70000F4908600846006800F00400009000BF89
:103E800000BF032211461E20FDF767FB1E20FDF731
:103E900054FB0848084908600846456000218160D5
:103EA000C4600161FEF7ADFE0348FEF71FFF38BD99
:103EB000E844025800080040700F002490F83410C5
:103EC00001F0010139B10168496821F40031826BC8
:103ED00011430268516090F8341001F0020139B1C9
:103EE0000168496821F48031C26B11430268516056
:103EF00090F8341001F0040139B10168496821F4E7
:103F00008021026C11430268516090F8341001F076
:103F1000080139B10168496821F40041426C11433C
:103F20000268516090F8341001F0100139B1016855
:103F3000896821F48051826C11430268916090F885
:103F4000341001F0200139B10168896821F4005171
:103F5000C26C11430268916090F8341001F0400186
:103F600099B10168496821F48011026D114302681A
:103F70005160016DB1F5801F07D10168496821F4D6
:103F8000C001426D11430268516090F8341001F095
:103F9000800139B10168496821F40021826D114323
:103FA00002685160704738B5044600250020E0677C
:103FB000FDF77CFA05462068006800F00800082834
:103FC0000CD16FF07E402B4600224FF40011009080
:103FD000204600F0A6FD08B1032038BD2068006827
:103FE00000F0040004280CD16FF07E402B46002224
:103FF0004FF480010090204600F093FD08B10320AB
:10400000EBE7202084F8790084F87A0000BF0020D4
:1040100084F8780000BF00BFDFE770B50546AC6BE1
:104020000020A4F86A00A4F862002046FEF766FFAC
:1040300070BD0168096821F490710268116001681F
:10404000896821F0010102689160202180F87A10CE
:10405000704710B504462068006820F040002168D1
:104060000860202084F879002046FFF7F7F9002047
:1040700010BD2DE9F0410446B4F86C7094F87A0054
:10408000222833D12068858CA068B0F5805F09D1E3
:10409000206938B9666E05EA07003080606E801CC2
:1040A000606605E0F8B22840626E511C61661070CF
:1040B000B4F86A00401E80B2A4F86A00A0B9206873
:1040C000006820F49070216808602068806820F003
:1040D000010021688860202084F87A002046FFF7DC
:1040E00079F90020BDE8F0810020FBE72068008B13
:1040F00040F00800216808830220F3E72DE9F04F23
:1041000089B0044600254FF08008A946AA46002041
:104110000890FA492068884201D1012000E000207F
:1041200000B100E000BFA06AB0F1005F00D100BFA5
:104130002169A068084361690843E16940EA010513
:10414000A06A054320680068ED49084028432168BB
:1041500008602068406820F44050E1680843216806
:104160004860A569E5492068884201D1012000E046
:10417000002008B9206A0543A06AB0F1005F03D1AE
:10418000D4E90B010843054320688068DD490840F5
:104190002843216888602068C06A20F00F00616AA7
:1041A00008432168C86200BFD7492068884224D1EB
:1041B000D648006800F03800182814D005DC48B153
:1041C00008280AD0102817D10AE020280ED0282865
:1041D00012D10EE04FF001080EE04FF004080BE0A2
:1041E0004FF0400808E04FF0080805E04FF01008D5
:1041F00002E04FF0200800BF17E1C549206888425F
:104200001DD1C248006800F00700062816D2DFE87A
:1042100000F00306090C0F124FF000080EE04FF0FB
:1042200004080BE04FF0400808E04FF0080805E0F4
:104230004FF0100802E04FF0200800BFF5E0B5494C
:10424000206888421DD1B148006800F007000628A8
:1042500016D2DFE800F00306090C0F124FF0000839
:104260000EE04FF004080BE04FF0400808E04FF07C
:10427000080805E04FF0100802E04FF0200800BFEA
:10428000D3E0A549206888421DD1A048006800F00D
:104290000700062816D2DFE800F00306090C0F120B
:1042A0004FF000080EE04FF004080BE04FF040081C
:1042B00008E04FF0080805E04FF0100802E04FF06A
:1042C000200800BFB1E09549206888421DD18F4881
:1042D000006800F00700062816D2DFE800F00306A9
:1042E000090C0F124FF000080EE04FF004080BE02D
:1042F0004FF0400808E04FF0080805E04FF01008C4
:1043000002E04FF0200800BF8FE085492068884216
:1043100024D17E48006800F03800182814D005DC4D
:1043200048B108280AD0102817D10AE020280ED05A
:10433000282812D10EE04FF001080EE04FF00408DB
:104340000BE04FF0400808E04FF0080805E04FF0A0
:10435000100802E04FF0200800BF66E071492068B5
:1043600088421DD16948006800F00700062816D26F
:10437000DFE800F00306090C0F124FF000080EE012
:104380004FF004080BE04FF0400808E04FF0080839
:1043900005E04FF0100802E04FF0200800BF44E0B5
:1043A0006149206888421DD15848006800F0070024
:1043B000062816D2DFE800F00306090C0F124FF0B2
:1043C00000080EE04FF004080BE04FF0400808E052
:1043D0004FF0080805E04FF0100802E04FF0200809
:1043E00000BF22E04549206888421ED14748001D91
:1043F000006800F00700062816D2DFE800F0030688
:10440000090C0F124FF002080EE04FF004080BE009
:104410004FF0400808E04FF0080805E04FF01008A2
:1044200002E04FF0200800BF00BF00BF3349206802
:10443000884201D1012000E0002000285DD0002545
:10444000B8F1100F33D009DCB8F1020F10D0B8F179
:10445000040F11D0B8F1080F2ED117E0B8F1200FDA
:1044600027D0B8F1400F0CD0B8F1800F24D124E050
:10447000FDF7E0F8054623E005A8FDF7F1F8069DF5
:104480001EE002A8FDF702FA039D19E01F48543808
:104490000068C0F3401040B11C4854380068C0F3B5
:1044A000C101224820FA01F500E0204D08E0204D2E
:1044B00006E04FF4004503E000BF0120089000BF74
:1044C00000BF002D0AD0606800EB4000A84203D86E
:1044D00060680003A84202D201200890D4E2B8F13B
:1044E000100F7CD026DCB8F1020F2DD0B8F1040FEC
:1044F00052D0B8F1080F73D19EE03FE1000C005894
:10450000F369FFCFFFF4FF1100100140544402583B
:104510000044004000480040004C00400050004073
:104520000014014000780040007C00400090D0035F
:1045300000093D00B8F1200F7DD0B8F1400F54D0F4
:10454000B8F1800FD7D109E1FDF774F800270646CE
:10455000FB49606A31F810C062463B463046394636
:10456000FBF73AFF4FF4807600220346A3FB0607D1
:1045700001FB067103FB02136168490806467118C6
:104580005A41CDE900126668324600230846019977
:10459000FBF722FF0546E4E005A8FDF761F8DDF82A
:1045A00018C0E749606A31F810B05A4600236046E7
:1045B0001946FBF711FF4FF4807C0022A0FB0C3B57
:1045C00001FB0CB100FB0210616849085E1840EB6A
:1045D0000201D4F804C062460023304601E079E0CD
:1045E000BBE0FBF7F9FE0546BBE002A8FDF74EF97C
:1045F000DDF80CC0D249606A31F810B05A46002389
:1046000060461946FBF7E8FE4FF4807C0022A0FBD1
:104610000C3B01FB0CB100FB0210616849085E18FD
:1046200040EB0201D4F804C0624600233046FBF799
:10463000D3FE054695E06EE0C2480068C0F3401026
:1046400038B3C0480068C0F3C101BF4820FA01FC7C
:10465000BB49606A31F810B05A46002360461946DB
:10466000FBF7BAFE4FF4807C0022A0FB0C3B01FB61
:104670000CB100FB0210616849085E1840EB0201B2
:10468000D4F804C0624600233046FBF7A5FE054679
:104690001FE0AB49606A31F810C062460023AA48A7
:1046A0001946FBF799FE4FF4807C0022A0FB0C3BDF
:1046B00001FB0CB100FB0210616849085E1840EB79
:1046C0000201D4F804C0624600233046FBF784FEA2
:1046D000054646E09A49606A31F810C062460023F8
:1046E0009A481946FBF778FE4FF4807C0022A0FB25
:1046F0000C3B01FB0CB100FB0210616849085E181D
:1047000040EB0201D4F804C0624600233046FBF7B8
:1047100063FE054625E08A49606A31F810C06246AA
:1047200000234FF400401946FBF756FE4FF4807CFF
:104730000022A0FB0C3B01FB0CB100FB02106168E6
:1047400049085E1840EB0201D4F804C06246002319
:104750003046FBF741FE054603E000BF012008900C
:1047600000BF00BFB5F5407F05D3B5F5801F02D26D
:104770002068C56088E10120089085E1E069B0F516
:10478000004F7CD1B8F1100F7AD00CDCB8F1000FDB
:1047900013D0B8F1010F21D0B8F1040F2FD0B8F128
:1047A000080F6ED151E0B8F1200F6BD0B8F1400F77
:1047B00038D0B8F1800F64D197E0FDF7C1FA604AB4
:1047C000616A32F81110B0FBF1F04000616800EB53
:1047D0005100B0FBF1F01FFA80FA89E0FDF7C6FA4C
:1047E000574A616A32F81110B0FBF1F0400061687D
:1047F00000EB5100B0FBF1F01FFA80FA78E005A859
:10480000FCF72EFF06994E4A606A32F81000B1FBA1
:10481000F0F04000616800EB5100B0FBF1F01FFACE
:1048200080FA65E002A8FDF731F80399444A606A0E
:1048300032F81000B1FBF0F04000616800EB51006D
:10484000B0FBF1F01FFA80FA52E03E480068C0F376
:104850004010C0B13B480068C0F3C1013A48C840AD
:10486000374A616A32F81110B0FBF1F0400061681C
:1048700000EB5100B0FBF1F01FFA80FA12E044E0C7
:1048800011E031E01FE02E49606A31F810002E4936
:10489000B1FBF0F04000616800EB5100B0FBF1F0BB
:1048A0001FFA80FA24E02649606A31F8100027498F
:1048B000B1FBF0F04000616800EB5100B0FBF1F09B
:1048C0001FFA80FA14E01E49606A31F810004FF4B4
:1048D0000041B1FBF0F04000616800EB5100B0FB1B
:1048E000F1F01FFA80FA03E000BF0120089000BF3A
:1048F00000BF4FF6F0700AEA0009CAF3420049EA25
:1049000000092068C0F80C90BEE0B8F1100F7CD010
:104910000CDCB8F1000F1BD0B8F1010F29D0B8F1B1
:10492000040F37D0B8F1080F70D159E0B8F1200F5B
:104930006DD0B8F1400F40D0B8F1800F66D19FE044
:1049400030720008004402580090D00300093D0076
:10495000FDF7F6F94E4A616A32F81110B0FBF1F03A
:10496000616800EB5100B0FBF1F080B22168C860D3
:1049700089E0FDF7FBF9464A616A32F81110B0FB95
:10498000F1F0616800EB5100B0FBF1F080B22168FA
:10499000C86078E005A8FCF763FE06993C4A606AA7
:1049A00032F81000B1FBF0F0616800EB5100B0FB91
:1049B000F1F080B22168C86065E002A8FCF766FFEC
:1049C0000399334A606A32F81000B1FBF0F0616875
:1049D00000EB5100B0FBF1F080B22168C86052E0FA
:1049E0002C480068C0F34010C0B12A480068C0F3EA
:1049F000C1012948C840264A616A32F81110B0FB4B
:104A0000F1F0616800EB510002E017E037E025E0CB
:104A1000B0FBF1F080B22168C8600EE01C49606A0A
:104A200031F810001C49B1FBF0F0616800EB510057
:104A3000B0FBF1F080B22168C86024E01449606ADC
:104A400031F810001549B1FBF0F0616800EB51003E
:104A5000B0FBF1F080B22168C86014E00C49606AD4
:104A600031F810004FF40041B1FBF0F0616800EB49
:104A70005100B0FBF1F080B22168C86003E000BFD4
:104A80000120089000BF00BF089809B0BDE8F08F72
:104A900030720008004402580090D00300093D0025
:104AA000014691F87900212839D1B1F86200C8B9DE
:104AB0000868006800F0005030B10868806820F491
:104AC00000000B68986005E00868006820F080002E
:104AD0000B6818600868006840F040000B681860B8
:104AE000002070478868B0F5805F0BD1086948B92D
:104AF000CA6D1088C0F308000B681885C86D801C4B
:104B0000C86505E0CB6D581CC86518780B6818851A
:104B1000B1F86200401EA1F862000020E1E7022027
:104B2000DFE72DE9F04104460D4617469846069EFC
:104B300021E0701CF8B12EB1FCF7B8FCA0EB080026
:104B4000B04218D92068006820F4D070216808604D
:104B50002068806820F0010021688860202084F8A7
:104B6000790084F87A0000BF002084F8780000BF44
:104B70000320BDE8F0812068C0692840A84201D127
:104B8000012000E00020B842D3D00020F1E700006F
:104B900070B500240F4D1048FEF7BCF900BF03E0CC
:104BA000641CAC4200D904E00B48FEF7A8F92028A9
:104BB000F6D100BF002403E0641CAC4200D906E03B
:104BC000012206490448FEF794FB0028F4D100BFF7
:104BD00070BD0000FFFF0100280300241200002424
:104BE00008B53C480068C069C0F3401000286CD08C
:104BF0004FF47A73012269463648FEF7F1FA3648D7
:104C000090F8080200285ED19DF800003249D1F8E2
:104C10000C12314A50541046D0F80C02401C114678
:104C2000C1F80C02084690F8090205284AD2DFE8CC
:104C300000F003111A2836009DF80000EE2808D174
:104C40000120254981F80902C1F80C029DF80000F5
:104C5000087037E09DF80000FF2803D102201E49AC
:104C600081F809022EE09DF80000FC2804D1032001
:104C7000194981F8090203E00120174981F8090266
:104C800020E09DF80000FF2804D10420124981F89B
:104C9000090203E00120104981F8090212E09DF8A1
:104CA0000000FF2809D100200B4981F809020120EA
:104CB00081F80802FEF7D6FB03E00120064981F8DF
:104CC000090200BF01E0FEF7CDFB0248FEF722F922
:104CD00008BD00009C0400242C07002408B50F48E0
:104CE0000068C069C0F34010A0B14FF47A7301228C
:104CF00069460A48FEF774FA9DF800100848D0F893
:104D00000822D0F80802401C054BC3F808021846D8
:104D1000815400BF0148FEF7FDF808BDD80A002401
:104D2000640D002400BFFEE703B401984100009821
:104D300050EAC12018BF04204A0D18BF40F00100FE
:104D400040F2FF72B2EB515F08BF40F00200012851
:104D500008BF052002B0704702480068C0F3022077
:104D6000704700000CED00E010B5002804DB0A07D6
:104D7000130E054A135406E00A07140E034A00F006
:104D80000F031B1FD45410BD00E400E018ED00E039
:104D90002DE9F04D2DED040B2DED0A8B9AB0DDE9D8
:104DA0002550279CDDF890A025F0004624F000480F
:104DB000BAF1000F14BF0121002101EB4502F849AF
:104DC00053184A1093422AD3002814BF012300230A
:104DD00003EB44030B44F3498B4220D358EA000110
:104DE0009FEDF19B72D0DFF8C8B35D4503D1BAF1F6
:104DF000000F05D184E0BAF1000F08BF002100D0F8
:104E0000012101EB450111F5001F08D8002814BF4E
:104E10000121002101EB440111F5001F0BD99DED8B
:104E2000261B9DED240B1AB0BDEC0A8B04B0BDE827
:104E3000F04D00F071BC0027002DBCBFDD49884556
:104E400021DADD498845A8BF02271CDAC3451ADCF0
:104E5000DA4901EB2851142908DDC1F1340220FAA6
:104E600002F101FA02F282420DD108E058B9C1F113
:104E7000140228FA02F101FA02F2424503D101F0CC
:104E80000101C1F1020756EA0A0120D1002C1EDA05
:104E9000002D18BF022F01D0012F0AD00220FBF7EE
:104EA000D5FC1AB0BDEC0A8B04B0BDE8F04D00F0A3
:104EB00023BC0220FBF7CAFC00F01EFCB1EE400B45
:104EC0001AB0BDEC0A8B04B0BDE8F08D18E09FED80
:104ED000BCAB9FEDBD8B00287DD1B64880451CD171
:104EE00005F1804010F5801008BFBAF1000F07D01F
:104EF000B34508DC002CA8BF9DED260BE0DA07E0E7
:104F0000B0EE490BDCE7002CB8BF9DED260BD5DBDE
:104F1000AF48784490ED000BD2E7D84548D1002C3B
:104F200043DA2EB186423AD1BAF1000F3DD126E0E4
:104F3000BAF1000F13D00220FBF788FC00F0FCFB55
:104F40008DED020B9DED240B8DED000B10EE900A04
:104F5000039961F31E0003909DED020BB0E78DED08
:104F600002AB9DED240B1AEE901A10EE900A8DED17
:104F7000000B61F31E0003909DED020BA0E78DED89
:104F8000028B9DED240B18EE901A10EE900A8DED19
:104F9000000B61F31E0003909DED020B90E704DA15
:104FA0009DED241B89EE010B8AE79DED240B87E71D
:104FB00086421ADAB4F1804F04BF9DED240B20EE37
:104FC000000B3FF47DAFA4F10050B0F1FF500CD1C5
:104FD000002D0ADB00E008E09DED240B51EC100BE6
:104FE00000F093FC41EC100B6AE79DED240B51ECB3
:104FF000100B00F00BFCBAF1000FCDE90E0140D10F
:105000009FED750B46B3A6F1E040B0F17F600ED086
:105010005E4536D1002D00DA97B3022F0CBF012078
:105020004FF0FF3000EE100AB8EEC00B48E7002D3D
:1050300001DD002C0DDA002D01DD002C1DDB002D23
:1050400014DA002C12DB012F08BF9FED650B3FF433
:1050500037AFB0EE4A0B33E7022F18BF002D0CD04C
:10506000012F0AD1002DFFF62BAF06E0002DB8BFAF
:10507000002C06DA012F3FF423AFB0EE480B1FE7F8
:1050800019E0012000EBE57050EA070113D0791E0A
:10509000B0EE498B084308BF9FED538B5448002561
:1050A00080457ADD53495448884514DDB0420DDB14
:1050B000002C19DB2CE00120FBF7C8FB1AB0BDEC7B
:1050C0000A8B04B0BDE8F04D00F02ABBB34502DC0A
:1050D000002C09DC1CE0864202DA002C18DA03E01E
:1050E0005E4528DD002C13DD0220FBF7AFFB00F04E
:1050F00023FB8DED020B28EE0A0B8DED000B10EE5D
:10510000900A039961F31E0003909DED020BD7E610
:105110000220FBF79BFB00F01BFB10EE901A18EE31
:10512000900A8DED020B8DED008B61F31E00039054
:105130009DED020BC4E69DED0E0B9FED313B30EE75
:10514000490B8DED040B20EE002B9DED041B9FED14
:105150002E0B01EE430B9DED043B9FED2D1B03EE4B
:10516000401B9DED040B9FED2E3B22EE012B9FED8E
:105170002A1B20EE011B20EE030B9FED2B3B02EEC2
:10518000430B31EE002B8DED022B02959DED022B92
:1051900032EE411B30EE411B21E149E000000000EE
:1051A000FFFF1F00FFFF0F00000000000000F03FA6
:1051B0000000F03F0000F07F0000404301FCFFFFD3
:1051C000000000000000F07F000000000000000070
:1051D000C224000000000000000000000000008069
:1051E000000000000000F0FF000000000000F0BF21
:1051F0000000E0410000F043FFFFEF3F000000002F
:10520000000000000000D03F555555555555D53F7D
:10521000000000000000E03F000000604715F73F7D
:1052200044DF5DF80BAE543EFE822B654715F73F19
:105230000020B6F5801F0BDA9DED0E0B9FEDEC1BE9
:105240006FF0340020EE010B10EE906A8DED0E0B26
:10525000E94A00EB2650C6F31301A0F2FF3741F0F4
:105260007F6040F040509142D8BF002408DDE34AFF
:105270008A42C8BF012403DC0024A0F580107F1CF3
:10528000DF49794401EBC4010F9091ED001B9DEDC6
:105290000E2B9DED0E0BDB4931EE023B30EE410B48
:1052A00089EE032B20EE02AB8DED02AB7944029523
:1052B00091ED003B4FF0005141EA600000EB84406B
:1052C0008DED043B00F5002005909DED043B9DED28
:1052D000044B2AEE0ACB33EE411B9DED0E3BCA4830
:1052E000062133EE411B9DED023B03EE440B03EE22
:1052F000410B20EE02BBB0EE4C0B784400F0C4F939
:105300002CEE0C1B20EE010B9DED021B31EE0A1B57
:105310000BEE010B9DED021B21EE011B9FEDBC2B43
:1053200031EE023B33EE003B8DED043B04959DEDE9
:10533000043B33EE422B32EE411B30EE412B9DED10
:10534000020B9DED041B20EE011B9DED040B2BEECB
:10535000000B02EE0A0B31EE002B8DED022B0295B5
:105360009DED022B32EE411B30EE410B9DED021BF9
:105370009FEDA92B21EE021B9DED022B9FEDA83B7B
:1053800022EE032B9FEDA83BA94800EE032B7844A7
:1053900000EBC40090ED000BA64832EE000B02EECD
:1053A000107AB8EEC22B8DED042B31EE003B784421
:1053B00000EBC4009DED044B90ED002B33EE023B5F
:1053C00033EE043B8DED023B02959DED023B33EE47
:1053D000443B33EE422B32EE411B30EE411B9DED40
:1053E000260B954A8DED000B00959DED260B9DED4E
:1053F000002B30EE420B9DED022B20EE020B9DEDBB
:10540000262B02EE010B9DED001B9DED022B21EEE4
:10541000021B8DED021B30EE011B11EE900A11EE06
:10542000101A8DED001B904224DB821A11430ED11D
:105430009FED831B9DED002B9DED023B30EE011B8C
:1054400032EE432BB4EEC21BF1EE10FA26DD022041
:10545000FBF7FCF900F070F910EE901A18EE900AC4
:105460008DED020B8DED008B61F31E0003909DED21
:10547000020B25E5744B20F000429A420ED3734A8A
:10548000024411437FF444AE9DED022B31EE421BEA
:10549000B4EEC01BF1EE10FABFF63AAE20F00041B8
:1054A0006B4A6C4B002402EB21529942D8BF9DED10
:1054B000021B27DD511C4FF4801222FA01F1014436
:1054C000654BC1F30A527B44A2F2FF3293ED001BFD
:1054D000624B8DED041BD34021EA0303C1F313019A
:1054E00041F48011C2F1140221FA02F4059300285C
:1054F000B8BF64429DED021B9DED042B31EE421BB3
:105500008DED021B30EE011B8DED041B04959DED0E
:10551000041B9FED532B9DED023B21EE021B9DEDE5
:10552000042B32EE432B30EE420B9FED4F2B20EE3F
:10553000020B9DED042B9FED4E3B4F48052102EEE3
:10554000030B31EE002B8DED002B32EE411B30EEC4
:1055500041AB9DED000B20EE000B8DED040B78446C
:1055600000F092F89DED001B9DED042B02EE401B18
:105570008DED021B9DED000B20EE010B9FED402BEE
:1055800031EE422B80EE021B9DED002BB0EE4A0B5C
:1055900002EE0A0B31EE400B9DED001B30EE410B8D
:1055A00039EE400B10EE900A8DED000B00EB04502D
:1055B00001150029C8BF019013DC224651EC100BE5
:1055C00001F0F8FCFFF7B0FB042808BF00F0C0F8BA
:1055D00022469DED000B51EC100B01F0EBFCCDE9E8
:1055E00000019DED000B28EE000B69E400000000B7
:1055F00000000000000040438E9803007AB60B00C4
:10560000CA200000282100008220000000000000C5
:105610000000000000000840000000E009C7EE3F65
:10562000F5015B14E02F3EBEFD033ADC09C7EE3FF7
:10563000DE1F0000AE1F00000000904000000000D0
:10564000FE822B654715973C00CC904000346F3F9D
:1056500001FCFFFF0000E03F0E1F0000FFFF0F00F6
:1056600000000000432EE63FEF39FAFE422EE63FEF
:10567000396CA80C615C20BE4E1E000000000000CA
:105680000000000000000040491E00EBC102B0EE27
:10569000401B92ED000B31F006020DD0491E00EBCD
:1056A000C102B0EE403B92ED002B31F00602B0EEAD
:1056B000420B03EE010BF1D1022914D004290AD0C8
:1056C000062918BF704790ED0A2B00EE012B90EDD4
:1056D000080B02EE010B90ED062B00EE012B90ED76
:1056E000040B02EE010B90ED022B00EE012B90ED6E
:1056F000000B02EE010B70479FED031B9FED042B87
:1057000081EE020B70470000000000000000F03F37
:10571000000000000000000030EE010B70470000A8
:105720009FED031B81EE010B70470000000000009D
:1057300000000000000000009FED030B20EE000BB6
:105740007047000000000000000000000000007032
:105750009FED030B20EE000B7047000000000000DF
:10576000000000000000001030380A2801D201209B
:1057700070470020704700BF7047014600230A466B
:1057800003E00A20B2FBF0F25B1C002AF9D109B158
:10579000184670470120FCE710B504460420FDF7C9
:1057A00000FA0148046010BD0800002430B504462A
:1057B000002504E04FF47A7000F004F86D1CA54257
:1057C000F8D330BD70B5034600224FF0E02675696E
:1057D0000D4E366803FB06F44FF0E026B16910E089
:1057E0004FF0E026B06988420BD0884202D20E1AF0
:1057F000324402E02E1A0E4432440146A24200D343
:1058000000E0EDE700BF70BD0800002482B0CDE9E4
:10581000000121F0004001909DED000B02B051EC21
:10582000100B704700BF054AD26902F04002002AFF
:10583000F9D0C2B2014B1A85704700000010014038
:1058400010B5FBF77DF9FBF743FEFEF787F804235D
:1058500002220521A020FEF799F94FF4C870FFF746
:105860009BFF4FF4E13000F087F802484168C82000
:10587000884710BD640000247047000094B00246C1
:105880000C480A900C4800900C4801900C4802907B
:105890000C48039012B1012A08D104E00AA850F87C
:1058A000210014B070475DF82100FAE700BF0648F8
:1058B000F7E70000F1350008F9360008D534000894
:1058C000AD340008F5350008DD3500089EB07822BB
:1058D0000A496846FAF780FFFFF7B2FFFFF7CCFFEF
:1058E000684600F048F808E0684600F043F80448CD
:1058F000007810B1002002490870F5E778710008BF
:105900005801002401460868704700B541EC100BAF
:105910002DED028B83B0B1EEC08B18EE100A18EE9D
:10592000901A8DED008B002818BF0120084320F04D
:105930000040C0F17F6000F1E040C00F14D010EED5
:10594000101A10EE900A8DED000B002918BF0121EE
:10595000084320F00040C0F17F6000F1E040C00F3C
:1059600004BF0120FAF772FF51EC180B03B0BDEC35
:10597000028B00BD7047704710B5044609480A49BC
:1059800008600846446000218160C1600161816156
:105990000C214161FDF79CFB012204490248FDF7FF
:1059A000A8FC10BD001001402803002412000024B0
:1059B00030B595B0054613AB12AA09A9284600F0E8
:1059C0003FFA044614B1204615B030BD00201490B3
:1059D00026E0224909689DF8502001EBC20113AB73
:1059E00011AA486801A900F02BFA04460CB1204620
:1059F000EAE709A901A800F0E1FC60B99DF84400BC
:105A00009DF84810884201DD0220DDE79DF8500036
:105A1000124988750AE09DF85000401CC0B21490ED
:105A20000E48007D9DF850108842D2DC00BF0B4824
:105A3000007D9DF85010884201D10420C4E714A9CC
:105A4000284600F0DDFA04460CB12046BCE79DF87C
:105A50005000024948750020B6E7000064000024A9
:105A60002DE9F0419AB09C48847D007DA04202DC83
:105A70001AB0BDE8F0819849096801EBC40106AB92
:105A800007AA486808A900F0DBF908A993A0FAF76B
:105A90001BFD002644E09048008B0121B1400840E6
:105AA000D8B122218FA0FAF70FFD304600F02EFB6F
:105AB00089492431471839468BA0FAF705FD222180
:105AC00088A0FAF701FD304600F020FB824924311E
:105AD000084410A941F8260018E0304600F016FBF3
